{
  "_format": "hh-sol-artifact-1",
  "contractName": "MultisigFactory",
  "sourceName": "contracts/MultiSigFactory.sol",
  "abi": [
    {
      "inputs": [
        {
          "internalType": "uint256",
          "name": "_quorum",
          "type": "uint256"
        },
        {
          "internalType": "address[]",
          "name": "_validSigners",
          "type": "address[]"
        }
      ],
      "name": "createMultisigWallet",
      "outputs": [
        {
          "internalType": "contract MultiSig",
          "name": "newMulsig_",
          "type": "address"
        },
        {
          "internalType": "uint256",
          "name": "length_",
          "type": "uint256"
        }
      ],
      "stateMutability": "nonpayable",
      "type": "function"
    },
    {
      "inputs": [],
      "name": "getMultiSigClones",
      "outputs": [
        {
          "internalType": "contract MultiSig[]",
          "name": "",
          "type": "address[]"
        }
      ],
      "stateMutability": "view",
      "type": "function"
    }
  ],
  "bytecode": "0x608060405234801561001057600080fd5b506130a1806100206000396000f3fe60806040523480156200001157600080fd5b50600436106200003a5760003560e01c8063109dd5e9146200003f578063daebf2081462000061575b600080fd5b6200004962000098565b604051620000589190620003bd565b60405180910390f35b6200007f6004803603810190620000799190620005ea565b62000128565b6040516200008f92919062000672565b60405180910390f35b606060008054806020026020016040519081016040528092919081815260200182805480156200011e57602002820191906000526020600020905b8160009054906101000a900473ffffffffffffffffffffffffffffffffffffffff1673ffffffffffffffffffffffffffffffffffffffff1681526020019060010190808311620000d3575b5050505050905090565b6000806000841162000171576040517f08c379a0000000000000000000000000000000000000000000000000000000008152600401620001689062000700565b60405180910390fd5b8383511015620001b8576040517f08c379a0000000000000000000000000000000000000000000000000000000008152600401620001af9062000772565b60405180910390fd5b8383604051620001c89062000267565b620001d592919062000851565b604051809103906000f080158015620001f2573d6000803e3d6000fd5b5091506000829080600181540180825580915050600190039060005260206000200160009091909190916101000a81548173ffffffffffffffffffffffffffffffffffffffff021916908373ffffffffffffffffffffffffffffffffffffffff16021790555060008054905090509250929050565b6127e6806200088683390190565b600081519050919050565b600082825260208201905092915050565b6000819050602082019050919050565b600073ffffffffffffffffffffffffffffffffffffffff82169050919050565b6000819050919050565b6000620002ec620002e6620002e084620002a1565b620002c1565b620002a1565b9050919050565b60006200030082620002cb565b9050919050565b60006200031482620002f3565b9050919050565b620003268162000307565b82525050565b60006200033a83836200031b565b60208301905092915050565b6000602082019050919050565b6000620003608262000275565b6200036c818562000280565b9350620003798362000291565b8060005b83811015620003b05781516200039488826200032c565b9750620003a18362000346565b9250506001810190506200037d565b5085935050505092915050565b60006020820190508181036000830152620003d9818462000353565b905092915050565b6000604051905090565b600080fd5b600080fd5b6000819050919050565b6200040a81620003f5565b81146200041657600080fd5b50565b6000813590506200042a81620003ff565b92915050565b600080fd5b6000601f19601f8301169050919050565b7f4e487b7100000000000000000000000000000000000000000000000000000000600052604160045260246000fd5b620004808262000435565b810181811067ffffffffffffffff82111715620004a257620004a162000446565b5b80604052505050565b6000620004b7620003e1565b9050620004c5828262000475565b919050565b600067ffffffffffffffff821115620004e857620004e762000446565b5b602082029050602081019050919050565b600080fd5b60006200050b82620002a1565b9050919050565b6200051d81620004fe565b81146200052957600080fd5b50565b6000813590506200053d8162000512565b92915050565b60006200055a6200055484620004ca565b620004ab565b9050808382526020820190506020840283018581111562000580576200057f620004f9565b5b835b81811015620005ad57806200059888826200052c565b84526020840193505060208101905062000582565b5050509392505050565b600082601f830112620005cf57620005ce62000430565b5b8135620005e184826020860162000543565b91505092915050565b60008060408385031215620006045762000603620003eb565b5b6000620006148582860162000419565b925050602083013567ffffffffffffffff811115620006385762000637620003f0565b5b6200064685828601620005b7565b9150509250929050565b6200065b8162000307565b82525050565b6200066c81620003f5565b82525050565b600060408201905062000689600083018562000650565b62000698602083018462000661565b9392505050565b600082825260208201905092915050565b7f496e76616c69642051756f72756d000000000000000000000000000000000000600082015250565b6000620006e8600e836200069f565b9150620006f582620006b0565b602082019050919050565b600060208201905081810360008301526200071b81620006d9565b9050919050565b7f496e73756666696369656e74205369676e657273000000000000000000000000600082015250565b60006200075a6014836200069f565b9150620007678262000722565b602082019050919050565b600060208201905081810360008301526200078d816200074b565b9050919050565b600081519050919050565b6000819050602082019050919050565b620007ba81620004fe565b82525050565b6000620007ce8383620007af565b60208301905092915050565b6000602082019050919050565b6000620007f48262000794565b62000800818562000280565b93506200080d836200079f565b8060005b8381101562000844578151620008288882620007c0565b97506200083583620007da565b92505060018101905062000811565b5085935050505092915050565b600060408201905062000868600083018562000661565b81810360208301526200087c8184620007e7565b9050939250505056fe60806040523480156200001157600080fd5b50604051620027e6380380620027e6833981810160405281019062000037919062000620565b60018151116200007e576040517f08c379a00000000000000000000000000000000000000000000000000000000081526004016200007590620006e7565b60405180910390fd5b60018211620000c4576040517f08c379a0000000000000000000000000000000000000000000000000000000008152600401620000bb9062000759565b60405180910390fd5b60005b81518110156200029057600073ffffffffffffffffffffffffffffffffffffffff16828281518110620000ff57620000fe6200077b565b5b602002602001015173ffffffffffffffffffffffffffffffffffffffff160362000160576040517f08c379a00000000000000000000000000000000000000000000000000000000081526004016200015790620007fa565b60405180910390fd5b600360008383815181106200017a57620001796200077b565b5b602002602001015173ffffffffffffffffffffffffffffffffffffffff1673ffffffffffffffffffffffffffffffffffffffff16815260200190815260200160002060009054906101000a900460ff16156200020d576040517f08c379a000000000000000000000000000000000000000000000000000000000815260040162000204906200086c565b60405180910390fd5b6001600360008484815181106200022957620002286200077b565b5b602002602001015173ffffffffffffffffffffffffffffffffffffffff1673ffffffffffffffffffffffffffffffffffffffff16815260200190815260200160002060006101000a81548160ff0219169083151502179055508080600101915050620000c7565b508051600160006101000a81548160ff021916908360ff160217905550600360003373ffffffffffffffffffffffffffffffffffffffff1673ffffffffffffffffffffffffffffffffffffffff16815260200190815260200160002060009054906101000a900460ff1662000390576001600360003373ffffffffffffffffffffffffffffffffffffffff1673ffffffffffffffffffffffffffffffffffffffff16815260200190815260200160002060006101000a81548160ff02191690831515021790555060018060008282829054906101000a900460ff16620003779190620008ca565b92506101000a81548160ff021916908360ff1602179055505b600160009054906101000a900460ff1660ff16821115620003e8576040517f08c379a0000000000000000000000000000000000000000000000000000000008152600401620003df906200097c565b60405180910390fd5b8160008190555050506200099e565b6000604051905090565b600080fd5b600080fd5b6000819050919050565b62000420816200040b565b81146200042c57600080fd5b50565b600081519050620004408162000415565b92915050565b600080fd5b6000601f19601f8301169050919050565b7f4e487b7100000000000000000000000000000000000000000000000000000000600052604160045260246000fd5b62000496826200044b565b810181811067ffffffffffffffff82111715620004b857620004b76200045c565b5b80604052505050565b6000620004cd620003f7565b9050620004db82826200048b565b919050565b600067ffffffffffffffff821115620004fe57620004fd6200045c565b5b602082029050602081019050919050565b600080fd5b600073ffffffffffffffffffffffffffffffffffffffff82169050919050565b6000620005418262000514565b9050919050565b620005538162000534565b81146200055f57600080fd5b50565b600081519050620005738162000548565b92915050565b6000620005906200058a84620004e0565b620004c1565b90508083825260208201905060208402830185811115620005b657620005b56200050f565b5b835b81811015620005e35780620005ce888262000562565b845260208401935050602081019050620005b8565b5050509392505050565b600082601f83011262000605576200060462000446565b5b81516200061784826020860162000579565b91505092915050565b600080604083850312156200063a576200063962000401565b5b60006200064a858286016200042f565b925050602083015167ffffffffffffffff8111156200066e576200066d62000406565b5b6200067c85828601620005ed565b9150509250929050565b600082825260208201905092915050565b7f6665772076616c6964207369676e657273000000000000000000000000000000600082015250565b6000620006cf60118362000686565b9150620006dc8262000697565b602082019050919050565b600060208201905081810360008301526200070281620006c0565b9050919050565b7f71756f72756d20697320746f6f20736d616c6c00000000000000000000000000600082015250565b60006200074160138362000686565b91506200074e8262000709565b602082019050919050565b60006020820190508181036000830152620007748162000732565b9050919050565b7f4e487b7100000000000000000000000000000000000000000000000000000000600052603260045260246000fd5b7f7a65726f2061646472657373206e6f7420616c6c6f7765640000000000000000600082015250565b6000620007e260188362000686565b9150620007ef82620007aa565b602082019050919050565b600060208201905081810360008301526200081581620007d3565b9050919050565b7f7369676e657220616c7265616479206578697374730000000000000000000000600082015250565b60006200085460158362000686565b915062000861826200081c565b602082019050919050565b60006020820190508181036000830152620008878162000845565b9050919050565b600060ff82169050919050565b7f4e487b7100000000000000000000000000000000000000000000000000000000600052601160045260246000fd5b6000620008d7826200088e565b9150620008e4836200088e565b9250828201905060ff8111156200090057620008ff6200089b565b5b92915050565b7f71756f72756d2067726561746572207468616e2076616c6964207369676e657260008201527f7300000000000000000000000000000000000000000000000000000000000000602082015250565b60006200096460218362000686565b9150620009718262000906565b604082019050919050565b60006020820190508181036000830152620009978162000955565b9050919050565b611e3880620009ae6000396000f3fe608060405234801561001057600080fd5b50600436106100935760003560e01c80633c540687116100665780633c5406871461010c5780636887dfd01461012a578063b7cdc6151461015a578063cb45997b14610178578063ccb570e3146101ab57610093565b80631703a0181461009857806317eff51b146100b65780632f430e17146100d4578063361e06ee146100f0575b600080fd5b6100a06101c7565b6040516100ad91906113d7565b60405180910390f35b6100be6101cd565b6040516100cb919061140e565b60405180910390f35b6100ee60048036038101906100e9919061145a565b6101e0565b005b61010a600480360381019061010591906114b3565b6106d3565b005b610114610b6e565b60405161012191906113d7565b60405180910390f35b610144600480360381019061013f919061145a565b610b74565b60405161015191906116bf565b60405180910390f35b610162610dda565b60405161016f91906113d7565b60405180910390f35b610192600480360381019061018d91906114b3565b610de0565b6040516101a294939291906116ff565b60405180910390f35b6101c560048036038101906101c09190611770565b610e3d565b005b60005481565b600160009054906101000a900460ff1681565b6000600460008360ff16815260200190815260200160002090506000816000015403610241576040517f08c379a000000000000000000000000000000000000000000000000000000000815260040161023890611820565b60405180910390fd5b80600101548160060160009054906101000a900473ffffffffffffffffffffffffffffffffffffffff1673ffffffffffffffffffffffffffffffffffffffff166370a08231306040518263ffffffff1660e01b81526004016102a39190611840565b602060405180830381865afa1580156102c0573d6000803e3d6000fd5b505050506040513d601f19601f820116820180604052508101906102e49190611870565b1015610325576040517f08c379a000000000000000000000000000000000000000000000000000000000815260040161031c906118e9565b60405180910390fd5b8060030160149054906101000a900460ff1615610377576040517f08c379a000000000000000000000000000000000000000000000000000000000815260040161036e90611955565b60405180910390fd5b6000548160050154106103bf576040517f08c379a00000000000000000000000000000000000000000000000000000000081526004016103b6906119c1565b60405180910390fd5b600360003373ffffffffffffffffffffffffffffffffffffffff1673ffffffffffffffffffffffffffffffffffffffff16815260200190815260200160002060009054906101000a900460ff1661044b576040517f08c379a000000000000000000000000000000000000000000000000000000000815260040161044290611a2d565b60405180910390fd5b600660003373ffffffffffffffffffffffffffffffffffffffff1673ffffffffffffffffffffffffffffffffffffffff16815260200190815260200160002060008360ff16815260200190815260200160002060009054906101000a900460ff16156104ec576040517f08c379a00000000000000000000000000000000000000000000000000000000081526004016104e390611a99565b60405180910390fd5b6001600660003373ffffffffffffffffffffffffffffffffffffffff1673ffffffffffffffffffffffffffffffffffffffff16815260200190815260200160002060008460ff16815260200190815260200160002060006101000a81548160ff021916908315150217905550600181600501600082825461056d9190611ae8565b9250508190555080600701339080600181540180825580915050600190039060005260206000200160009091909190916101000a81548173ffffffffffffffffffffffffffffffffffffffff021916908373ffffffffffffffffffffffffffffffffffffffff1602179055506000548160050154036106cf5760018160030160146101000a81548160ff0219169083151502179055508060060160009054906101000a900473ffffffffffffffffffffffffffffffffffffffff1673ffffffffffffffffffffffffffffffffffffffff1663a9059cbb8260030160009054906101000a900473ffffffffffffffffffffffffffffffffffffffff1683600101546040518363ffffffff1660e01b815260040161068a929190611b1c565b6020604051808303816000875af11580156106a9573d6000803e3d6000fd5b505050506040513d601f19601f820116820180604052508101906106cd9190611b71565b505b5050565b600360003373ffffffffffffffffffffffffffffffffffffffff1673ffffffffffffffffffffffffffffffffffffffff16815260200190815260200160002060009054906101000a900460ff1661075f576040517f08c379a000000000000000000000000000000000000000000000000000000000815260040161075690611a2d565b60405180910390fd5b600181116107a2576040517f08c379a000000000000000000000000000000000000000000000000000000000815260040161079990611bea565b60405180910390fd5b600160009054906101000a900460ff1660ff168111156107f7576040517f08c379a00000000000000000000000000000000000000000000000000000000081526004016107ee90611bea565b60405180910390fd5b60006005600060075481526020019081526020016000209050600073ffffffffffffffffffffffffffffffffffffffff168160020160019054906101000a900473ffffffffffffffffffffffffffffffffffffffff1673ffffffffffffffffffffffffffffffffffffffff16148061087d57508060020160009054906101000a900460ff165b156109cb576007600081548092919061089590611c0a565b91905055506005600060075481526020019081526020016000209050818160000181905550338160020160016101000a81548173ffffffffffffffffffffffffffffffffffffffff021916908373ffffffffffffffffffffffffffffffffffffffff1602179055506001816001018190555080600301339080600181540180825580915050600190039060005260206000200160009091909190916101000a81548173ffffffffffffffffffffffffffffffffffffffff021916908373ffffffffffffffffffffffffffffffffffffffff16021790555060018160040160003373ffffffffffffffffffffffffffffffffffffffff1673ffffffffffffffffffffffffffffffffffffffff16815260200190815260200160002060006101000a81548160ff021916908315150217905550610b6a565b8060040160003373ffffffffffffffffffffffffffffffffffffffff1673ffffffffffffffffffffffffffffffffffffffff16815260200190815260200160002060009054906101000a900460ff1615610a5a576040517f08c379a0000000000000000000000000000000000000000000000000000000008152600401610a5190611c9e565b60405180910390fd5b806001016000815480929190610a6f90611c0a565b919050555080600301339080600181540180825580915050600190039060005260206000200160009091909190916101000a81548173ffffffffffffffffffffffffffffffffffffffff021916908373ffffffffffffffffffffffffffffffffffffffff16021790555060018160040160003373ffffffffffffffffffffffffffffffffffffffff1673ffffffffffffffffffffffffffffffffffffffff16815260200190815260200160002060006101000a81548160ff021916908315150217905550600054816001015410610b695760018160020160006101000a81548160ff02191690831515021790555080600001546000819055505b5b5050565b60025481565b610b7c61132e565b6000600460008460ff1681526020019081526020016000206000015403610bd8576040517f08c379a0000000000000000000000000000000000000000000000000000000008152600401610bcf90611820565b60405180910390fd5b6000600460008460ff1681526020019081526020016000206040518061012001604052908160008201548152602001600182015481526020016002820160009054906101000a900473ffffffffffffffffffffffffffffffffffffffff1673ffffffffffffffffffffffffffffffffffffffff1673ffffffffffffffffffffffffffffffffffffffff1681526020016003820160009054906101000a900473ffffffffffffffffffffffffffffffffffffffff1673ffffffffffffffffffffffffffffffffffffffff1673ffffffffffffffffffffffffffffffffffffffff1681526020016003820160149054906101000a900460ff1615151515815260200160048201548152602001600582015481526020016006820160009054906101000a900473ffffffffffffffffffffffffffffffffffffffff1673ffffffffffffffffffffffffffffffffffffffff1673ffffffffffffffffffffffffffffffffffffffff16815260200160078201805480602002602001604051908101604052809291908181526020018280548015610dc657602002820191906000526020600020905b8160009054906101000a900473ffffffffffffffffffffffffffffffffffffffff1673ffffffffffffffffffffffffffffffffffffffff1681526020019060010190808311610d7c575b505050505081525050905080915050919050565b60075481565b60056020528060005260406000206000915090508060000154908060010154908060020160009054906101000a900460ff16908060020160019054906101000a900473ffffffffffffffffffffffffffffffffffffffff16905084565b600073ffffffffffffffffffffffffffffffffffffffff163373ffffffffffffffffffffffffffffffffffffffff1603610eac576040517f08c379a0000000000000000000000000000000000000000000000000000000008152600401610ea390611d0a565b60405180910390fd5b600360003373ffffffffffffffffffffffffffffffffffffffff1673ffffffffffffffffffffffffffffffffffffffff16815260200190815260200160002060009054906101000a900460ff16610f38576040517f08c379a0000000000000000000000000000000000000000000000000000000008152600401610f2f90611d76565b60405180910390fd5b60008311610f7b576040517f08c379a0000000000000000000000000000000000000000000000000000000008152600401610f7290611de2565b60405180910390fd5b600073ffffffffffffffffffffffffffffffffffffffff168273ffffffffffffffffffffffffffffffffffffffff1603610fea576040517f08c379a0000000000000000000000000000000000000000000000000000000008152600401610fe190611d0a565b60405180910390fd5b600073ffffffffffffffffffffffffffffffffffffffff168173ffffffffffffffffffffffffffffffffffffffff1603611059576040517f08c379a000000000000000000000000000000000000000000000000000000000815260040161105090611d0a565b60405180910390fd5b828173ffffffffffffffffffffffffffffffffffffffff166370a08231306040518263ffffffff1660e01b81526004016110939190611840565b602060405180830381865afa1580156110b0573d6000803e3d6000fd5b505050506040513d601f19601f820116820180604052508101906110d49190611870565b1015611115576040517f08c379a000000000000000000000000000000000000000000000000000000000815260040161110c906118e9565b60405180910390fd5b600060016002546111269190611ae8565b90506000600460008381526020019081526020016000209050818160000181905550848160010181905550838160030160006101000a81548173ffffffffffffffffffffffffffffffffffffffff021916908373ffffffffffffffffffffffffffffffffffffffff160217905550338160020160006101000a81548173ffffffffffffffffffffffffffffffffffffffff021916908373ffffffffffffffffffffffffffffffffffffffff160217905550428160040181905550828160060160006101000a81548173ffffffffffffffffffffffffffffffffffffffff021916908373ffffffffffffffffffffffffffffffffffffffff16021790555060018160050160008282546112389190611ae8565b9250508190555080600701339080600181540180825580915050600190039060005260206000200160009091909190916101000a81548173ffffffffffffffffffffffffffffffffffffffff021916908373ffffffffffffffffffffffffffffffffffffffff1602179055506001600660003373ffffffffffffffffffffffffffffffffffffffff1673ffffffffffffffffffffffffffffffffffffffff168152602001908152602001600020600084815260200190815260200160002060006101000a81548160ff0219169083151502179055506001600260008282546113209190611ae8565b925050819055505050505050565b6040518061012001604052806000815260200160008152602001600073ffffffffffffffffffffffffffffffffffffffff168152602001600073ffffffffffffffffffffffffffffffffffffffff1681526020016000151581526020016000815260200160008152602001600073ffffffffffffffffffffffffffffffffffffffff168152602001606081525090565b6000819050919050565b6113d1816113be565b82525050565b60006020820190506113ec60008301846113c8565b92915050565b600060ff82169050919050565b611408816113f2565b82525050565b600060208201905061142360008301846113ff565b92915050565b600080fd5b611437816113f2565b811461144257600080fd5b50565b6000813590506114548161142e565b92915050565b6000602082840312156114705761146f611429565b5b600061147e84828501611445565b91505092915050565b611490816113be565b811461149b57600080fd5b50565b6000813590506114ad81611487565b92915050565b6000602082840312156114c9576114c8611429565b5b60006114d78482850161149e565b91505092915050565b6114e9816113be565b82525050565b600073ffffffffffffffffffffffffffffffffffffffff82169050919050565b600061151a826114ef565b9050919050565b61152a8161150f565b82525050565b60008115159050919050565b61154581611530565b82525050565b600081519050919050565b600082825260208201905092915050565b6000819050602082019050919050565b60006115838383611521565b60208301905092915050565b6000602082019050919050565b60006115a78261154b565b6115b18185611556565b93506115bc83611567565b8060005b838110156115ed5781516115d48882611577565b97506115df8361158f565b9250506001810190506115c0565b5085935050505092915050565b60006101208301600083015161161360008601826114e0565b50602083015161162660208601826114e0565b5060408301516116396040860182611521565b50606083015161164c6060860182611521565b50608083015161165f608086018261153c565b5060a083015161167260a08601826114e0565b5060c083015161168560c08601826114e0565b5060e083015161169860e0860182611521565b506101008301518482036101008601526116b2828261159c565b9150508091505092915050565b600060208201905081810360008301526116d981846115fa565b905092915050565b6116ea81611530565b82525050565b6116f98161150f565b82525050565b600060808201905061171460008301876113c8565b61172160208301866113c8565b61172e60408301856116e1565b61173b60608301846116f0565b95945050505050565b61174d8161150f565b811461175857600080fd5b50565b60008135905061176a81611744565b92915050565b60008060006060848603121561178957611788611429565b5b60006117978682870161149e565b93505060206117a88682870161175b565b92505060406117b98682870161175b565b9150509250925092565b600082825260208201905092915050565b7f696e76616c696420747820696400000000000000000000000000000000000000600082015250565b600061180a600d836117c3565b9150611815826117d4565b602082019050919050565b60006020820190508181036000830152611839816117fd565b9050919050565b600060208201905061185560008301846116f0565b92915050565b60008151905061186a81611487565b92915050565b60006020828403121561188657611885611429565b5b60006118948482850161185b565b91505092915050565b7f696e73756666696369656e742066756e64730000000000000000000000000000600082015250565b60006118d36012836117c3565b91506118de8261189d565b602082019050919050565b60006020820190508181036000830152611902816118c6565b9050919050565b7f7472616e73616374696f6e20616c726561647920636f6d706c65746564000000600082015250565b600061193f601d836117c3565b915061194a82611909565b602082019050919050565b6000602082019050818103600083015261196e81611932565b9050919050565b7f617070726f76616c7320616c7265616479207265616368656400000000000000600082015250565b60006119ab6019836117c3565b91506119b682611975565b602082019050919050565b600060208201905081810360008301526119da8161199e565b9050919050565b7f6e6f7420612076616c6964207369676e65720000000000000000000000000000600082015250565b6000611a176012836117c3565b9150611a22826119e1565b602082019050919050565b60006020820190508181036000830152611a4681611a0a565b9050919050565b7f63616e2774207369676e20747769636500000000000000000000000000000000600082015250565b6000611a836010836117c3565b9150611a8e82611a4d565b602082019050919050565b60006020820190508181036000830152611ab281611a76565b9050919050565b7f4e487b7100000000000000000000000000000000000000000000000000000000600052601160045260246000fd5b6000611af3826113be565b9150611afe836113be565b9250828201905080821115611b1657611b15611ab9565b5b92915050565b6000604082019050611b3160008301856116f0565b611b3e60208301846113c8565b9392505050565b611b4e81611530565b8114611b5957600080fd5b50565b600081519050611b6b81611b45565b92915050565b600060208284031215611b8757611b86611429565b5b6000611b9584828501611b5c565b91505092915050565b7f696e76616c69642071756f72756d000000000000000000000000000000000000600082015250565b6000611bd4600e836117c3565b9150611bdf82611b9e565b602082019050919050565b60006020820190508181036000830152611c0381611bc7565b9050919050565b6000611c15826113be565b91507fffffffffffffffffffffffffffffffffffffffffffffffffffffffffffffffff8203611c4757611c46611ab9565b5b600182019050919050565b7f616c726561647920617070726f76656400000000000000000000000000000000600082015250565b6000611c886010836117c3565b9150611c9382611c52565b602082019050919050565b60006020820190508181036000830152611cb781611c7b565b9050919050565b7f61646472657373207a65726f20666f756e640000000000000000000000000000600082015250565b6000611cf46012836117c3565b9150611cff82611cbe565b602082019050919050565b60006020820190508181036000830152611d2381611ce7565b9050919050565b7f696e76616c6964207369676e6572000000000000000000000000000000000000600082015250565b6000611d60600e836117c3565b9150611d6b82611d2a565b602082019050919050565b60006020820190508181036000830152611d8f81611d53565b9050919050565b7f63616e27742073656e64207a65726f20616d6f756e7400000000000000000000600082015250565b6000611dcc6016836117c3565b9150611dd782611d96565b602082019050919050565b60006020820190508181036000830152611dfb81611dbf565b905091905056fea26469706673582212202bfd8a36d873c2584a4125e4496a0c0ffe3d419ecbadb0cbbb96e2d8f6ebf18464736f6c63430008180033a2646970667358221220cd9bf473d11000b399af3fa3bba07c9a1cacc29f8a14ddc2e3b4fb60178b96f064736f6c63430008180033",
  "linkReferences": {},
  "deployedLinkReferences": {}
}